{
  "_format": "hh-sol-artifact-1",
  "contractName": "SalaryAutomation",
  "sourceName": "contracts/SalaryAutomation.sol",
  "abi": [
    {
      "inputs": [
        {
          "internalType": "address",
          "name": "_keeperRegistryAddress",
          "type": "address"
        },
        {
          "internalType": "uint256",
          "name": "_salaryUsd",
          "type": "uint256"
        },
        {
          "internalType": "address",
          "name": "_employee",
          "type": "address"
        }
      ],
      "stateMutability": "nonpayable",
      "type": "constructor"
    },
    {
      "anonymous": false,
      "inputs": [
        {
          "indexed": false,
          "internalType": "uint256",
          "name": "date",
          "type": "uint256"
        }
      ],
      "name": "EmployeePaid",
      "type": "event"
    },
    {
      "anonymous": false,
      "inputs": [
        {
          "indexed": false,
          "internalType": "address",
          "name": "account",
          "type": "address"
        }
      ],
      "name": "Paused",
      "type": "event"
    },
    {
      "anonymous": false,
      "inputs": [
        {
          "indexed": false,
          "internalType": "address",
          "name": "account",
          "type": "address"
        }
      ],
      "name": "Unpaused",
      "type": "event"
    },
    {
      "inputs": [
        {
          "internalType": "bytes",
          "name": "performData",
          "type": "bytes"
        }
      ],
      "name": "checkUpkeep",
      "outputs": [
        {
          "internalType": "bool",
          "name": "upkeepNeeded",
          "type": "bool"
        },
        {
          "internalType": "bytes",
          "name": "",
          "type": "bytes"
        }
      ],
      "stateMutability": "view",
      "type": "function"
    },
    {
      "inputs": [],
      "name": "fund",
      "outputs": [],
      "stateMutability": "payable",
      "type": "function"
    },
    {
      "inputs": [],
      "name": "getEmployee",
      "outputs": [
        {
          "internalType": "address",
          "name": "",
          "type": "address"
        }
      ],
      "stateMutability": "view",
      "type": "function"
    },
    {
      "inputs": [],
      "name": "getEmployeeSalary",
      "outputs": [
        {
          "internalType": "uint256",
          "name": "",
          "type": "uint256"
        }
      ],
      "stateMutability": "view",
      "type": "function"
    },
    {
      "inputs": [],
      "name": "getEthPrice",
      "outputs": [
        {
          "internalType": "uint256",
          "name": "",
          "type": "uint256"
        }
      ],
      "stateMutability": "view",
      "type": "function"
    },
    {
      "inputs": [],
      "name": "getKeeperRegistryAddress",
      "outputs": [
        {
          "internalType": "address",
          "name": "",
          "type": "address"
        }
      ],
      "stateMutability": "view",
      "type": "function"
    },
    {
      "inputs": [],
      "name": "lastTimeStamp",
      "outputs": [
        {
          "internalType": "uint256",
          "name": "",
          "type": "uint256"
        }
      ],
      "stateMutability": "view",
      "type": "function"
    },
    {
      "inputs": [],
      "name": "owner",
      "outputs": [
        {
          "internalType": "address",
          "name": "",
          "type": "address"
        }
      ],
      "stateMutability": "view",
      "type": "function"
    },
    {
      "inputs": [],
      "name": "pause",
      "outputs": [],
      "stateMutability": "nonpayable",
      "type": "function"
    },
    {
      "inputs": [],
      "name": "paused",
      "outputs": [
        {
          "internalType": "bool",
          "name": "",
          "type": "bool"
        }
      ],
      "stateMutability": "view",
      "type": "function"
    },
    {
      "inputs": [
        {
          "internalType": "bytes",
          "name": "performData",
          "type": "bytes"
        }
      ],
      "name": "performUpkeep",
      "outputs": [],
      "stateMutability": "nonpayable",
      "type": "function"
    },
    {
      "inputs": [
        {
          "internalType": "address",
          "name": "_employee",
          "type": "address"
        }
      ],
      "name": "setEmployee",
      "outputs": [],
      "stateMutability": "nonpayable",
      "type": "function"
    },
    {
      "inputs": [
        {
          "internalType": "uint256",
          "name": "_salaryUsd",
          "type": "uint256"
        }
      ],
      "name": "setEmployeeSalary",
      "outputs": [],
      "stateMutability": "nonpayable",
      "type": "function"
    },
    {
      "inputs": [
        {
          "internalType": "address",
          "name": "_keeperRegistryAddress",
          "type": "address"
        }
      ],
      "name": "setKeeperRegistryAddress",
      "outputs": [],
      "stateMutability": "nonpayable",
      "type": "function"
    },
    {
      "inputs": [],
      "name": "unpause",
      "outputs": [],
      "stateMutability": "nonpayable",
      "type": "function"
    },
    {
      "inputs": [
        {
          "internalType": "uint256",
          "name": "amount",
          "type": "uint256"
        },
        {
          "internalType": "address payable",
          "name": "payee",
          "type": "address"
        }
      ],
      "name": "withdraw",
      "outputs": [],
      "stateMutability": "nonpayable",
      "type": "function"
    },
    {
      "stateMutability": "payable",
      "type": "receive"
    }
  ],
  "bytecode": "0x60806040523480156200001157600080fd5b506040516200226c3803806200226c8339818101604052810190620000379190620004cf565b60008060006101000a81548160ff02191690831515021790555033600060016101000a81548173ffffffffffffffffffffffffffffffffffffffff021916908373ffffffffffffffffffffffffffffffffffffffff16021790555073694aa1769357215de4fac081bf1f309adc325306600560006101000a81548173ffffffffffffffffffffffffffffffffffffffff021916908373ffffffffffffffffffffffffffffffffffffffff160217905550620000f8836200012a60201b60201c565b62000109826200027460201b60201c565b6200011a816200035760201b60201c565b4260038190555050505062000709565b600060019054906101000a900473ffffffffffffffffffffffffffffffffffffffff1673ffffffffffffffffffffffffffffffffffffffff163373ffffffffffffffffffffffffffffffffffffffff1614620001bd576040517f08c379a0000000000000000000000000000000000000000000000000000000008152600401620001b490620005e4565b60405180910390fd5b600073ffffffffffffffffffffffffffffffffffffffff168173ffffffffffffffffffffffffffffffffffffffff16141562000230576040517f08c379a00000000000000000000000000000000000000000000000000000000081526004016200022790620005a0565b60405180910390fd5b80600160006101000a81548173ffffffffffffffffffffffffffffffffffffffff021916908373ffffffffffffffffffffffffffffffffffffffff16021790555050565b600060019054906101000a900473ffffffffffffffffffffffffffffffffffffffff1673ffffffffffffffffffffffffffffffffffffffff163373ffffffffffffffffffffffffffffffffffffffff161462000307576040517f08c379a0000000000000000000000000000000000000000000000000000000008152600401620002fe90620005e4565b60405180910390fd5b600081116200034d576040517f08c379a00000000000000000000000000000000000000000000000000000000081526004016200034490620005c2565b60405180910390fd5b8060048190555050565b600060019054906101000a900473ffffffffffffffffffffffffffffffffffffffff1673ffffffffffffffffffffffffffffffffffffffff163373ffffffffffffffffffffffffffffffffffffffff1614620003ea576040517f08c379a0000000000000000000000000000000000000000000000000000000008152600401620003e190620005e4565b60405180910390fd5b600073ffffffffffffffffffffffffffffffffffffffff168173ffffffffffffffffffffffffffffffffffffffff1614156200045d576040517f08c379a00000000000000000000000000000000000000000000000000000000081526004016200045490620005a0565b60405180910390fd5b80600260006101000a81548173ffffffffffffffffffffffffffffffffffffffff021916908373ffffffffffffffffffffffffffffffffffffffff16021790555050565b600081519050620004b281620006d5565b92915050565b600081519050620004c981620006ef565b92915050565b600080600060608486031215620004eb57620004ea62000655565b5b6000620004fb86828701620004a1565b93505060206200050e86828701620004b8565b92505060406200052186828701620004a1565b9150509250925092565b60006200053a600f8362000606565b915062000547826200065a565b602082019050919050565b600062000561600b8362000606565b91506200056e8262000683565b602082019050919050565b60006200058860098362000606565b91506200059582620006ac565b602082019050919050565b60006020820190508181036000830152620005bb816200052b565b9050919050565b60006020820190508181036000830152620005dd8162000552565b9050919050565b60006020820190508181036000830152620005ff8162000579565b9050919050565b600082825260208201905092915050565b600062000624826200062b565b9050919050565b600073ffffffffffffffffffffffffffffffffffffffff82169050919050565b6000819050919050565b600080fd5b7f496e76616c696420616464726573730000000000000000000000000000000000600082015250565b7f53616c617279203c3d2030000000000000000000000000000000000000000000600082015250565b7f4e6f74206f776e65720000000000000000000000000000000000000000000000600082015250565b620006e08162000617565b8114620006ec57600080fd5b50565b620006fa816200064b565b81146200070657600080fd5b50565b611b5380620007196000396000f3fe6080604052600436106100f65760003560e01c806367c9b0171161008a5780638456cb59116100595780638456cb59146102fd5780638da5cb5b14610314578063945551141461033f578063b60d428814610368576100fd565b806367c9b0171461023e5780636e04ff0d14610269578063719b3f88146102a7578063810623e3146102d2576100fd565b80633f4ba83a116100c65780633f4ba83a146101a85780634132db8f146101bf5780634585e33b146101ea5780635c975abb14610213576100fd565b8062f714ce146101025780630d51863a1461012b5780631b320776146101545780633f3b3b271461017d576100fd565b366100fd57005b600080fd5b34801561010e57600080fd5b5061012960048036038101906101249190611269565b610372565b005b34801561013757600080fd5b50610152600480360381019061014d919061123c565b610523565b005b34801561016057600080fd5b5061017b600480360381019061017691906111c2565b610600565b005b34801561018957600080fd5b50610192610744565b60405161019f91906116c6565b60405180910390f35b3480156101b457600080fd5b506101bd61074a565b005b3480156101cb57600080fd5b506101d46107e4565b6040516101e19190611520565b60405180910390f35b3480156101f657600080fd5b50610211600480360381019061020c91906111ef565b61089d565b005b34801561021f57600080fd5b50610228610961565b604051610235919061153b565b60405180910390f35b34801561024a57600080fd5b50610253610977565b60405161026091906116c6565b60405180910390f35b34801561027557600080fd5b50610290600480360381019061028b91906111ef565b610a2d565b60405161029e929190611556565b60405180910390f35b3480156102b357600080fd5b506102bc610aad565b6040516102c991906116c6565b60405180910390f35b3480156102de57600080fd5b506102e7610b46565b6040516102f49190611520565b60405180910390f35b34801561030957600080fd5b50610312610b70565b005b34801561032057600080fd5b50610329610c0a565b6040516103369190611520565b60405180910390f35b34801561034b57600080fd5b50610366600480360381019061036191906111c2565b610c30565b005b610370610d74565b005b600060019054906101000a900473ffffffffffffffffffffffffffffffffffffffff1673ffffffffffffffffffffffffffffffffffffffff163373ffffffffffffffffffffffffffffffffffffffff1614610402576040517f08c379a00000000000000000000000000000000000000000000000000000000081526004016103f990611666565b60405180910390fd5b600073ffffffffffffffffffffffffffffffffffffffff168173ffffffffffffffffffffffffffffffffffffffff161415610472576040517f08c379a0000000000000000000000000000000000000000000000000000000008152600401610469906115a6565b60405180910390fd5b60008173ffffffffffffffffffffffffffffffffffffffff16836040516104989061150b565b60006040518083038185875af1925050503d80600081146104d5576040519150601f19603f3d011682016040523d82523d6000602084013e6104da565b606091505b505090508061051e576040517f08c379a000000000000000000000000000000000000000000000000000000000815260040161051590611646565b60405180910390fd5b505050565b600060019054906101000a900473ffffffffffffffffffffffffffffffffffffffff1673ffffffffffffffffffffffffffffffffffffffff163373ffffffffffffffffffffffffffffffffffffffff16146105b3576040517f08c379a00000000000000000000000000000000000000000000000000000000081526004016105aa90611666565b60405180910390fd5b600081116105f6576040517f08c379a00000000000000000000000000000000000000000000000000000000081526004016105ed906115c6565b60405180910390fd5b8060048190555050565b600060019054906101000a900473ffffffffffffffffffffffffffffffffffffffff1673ffffffffffffffffffffffffffffffffffffffff163373ffffffffffffffffffffffffffffffffffffffff1614610690576040517f08c379a000000000000000000000000000000000000000000000000000000000815260040161068790611666565b60405180910390fd5b600073ffffffffffffffffffffffffffffffffffffffff168173ffffffffffffffffffffffffffffffffffffffff161415610700576040517f08c379a00000000000000000000000000000000000000000000000000000000081526004016106f7906115a6565b60405180910390fd5b80600260006101000a81548173ffffffffffffffffffffffffffffffffffffffff021916908373ffffffffffffffffffffffffffffffffffffffff16021790555050565b60035481565b600060019054906101000a900473ffffffffffffffffffffffffffffffffffffffff1673ffffffffffffffffffffffffffffffffffffffff163373ffffffffffffffffffffffffffffffffffffffff16146107da576040517f08c379a00000000000000000000000000000000000000000000000000000000081526004016107d190611666565b60405180910390fd5b6107e2610e49565b565b60008060019054906101000a900473ffffffffffffffffffffffffffffffffffffffff1673ffffffffffffffffffffffffffffffffffffffff163373ffffffffffffffffffffffffffffffffffffffff1614610875576040517f08c379a000000000000000000000000000000000000000000000000000000000815260040161086c90611666565b60405180910390fd5b600260009054906101000a900473ffffffffffffffffffffffffffffffffffffffff16905090565b600160009054906101000a900473ffffffffffffffffffffffffffffffffffffffff1673ffffffffffffffffffffffffffffffffffffffff163373ffffffffffffffffffffffffffffffffffffffff161461092d576040517f08c379a0000000000000000000000000000000000000000000000000000000008152600401610924906116a6565b60405180910390fd5b610935610eab565b621275006003544261094791906117a4565b111561095d574260038190555061095c610ef5565b5b5050565b60008060009054906101000a900460ff16905090565b600080600560009054906101000a900473ffffffffffffffffffffffffffffffffffffffff1673ffffffffffffffffffffffffffffffffffffffff1663feaf968c6040518163ffffffff1660e01b815260040160a06040518083038186803b1580156109e257600080fd5b505afa1580156109f6573d6000803e3d6000fd5b505050506040513d601f19601f82011682018060405250810190610a1a91906112a9565b5050509150506000819050809250505090565b60006060610a39610eab565b60004711610a7c576040517f08c379a0000000000000000000000000000000000000000000000000000000008152600401610a7390611606565b60405180910390fd5b6212750060035442610a8e91906117a4565b1191508160405180602001604052806000815250915091509250929050565b60008060019054906101000a900473ffffffffffffffffffffffffffffffffffffffff1673ffffffffffffffffffffffffffffffffffffffff163373ffffffffffffffffffffffffffffffffffffffff1614610b3e576040517f08c379a0000000000000000000000000000000000000000000000000000000008152600401610b3590611666565b60405180910390fd5b600454905090565b6000600160009054906101000a900473ffffffffffffffffffffffffffffffffffffffff16905090565b600060019054906101000a900473ffffffffffffffffffffffffffffffffffffffff1673ffffffffffffffffffffffffffffffffffffffff163373ffffffffffffffffffffffffffffffffffffffff1614610c00576040517f08c379a0000000000000000000000000000000000000000000000000000000008152600401610bf790611666565b60405180910390fd5b610c0861103b565b565b600060019054906101000a900473ffffffffffffffffffffffffffffffffffffffff1681565b600060019054906101000a900473ffffffffffffffffffffffffffffffffffffffff1673ffffffffffffffffffffffffffffffffffffffff163373ffffffffffffffffffffffffffffffffffffffff1614610cc0576040517f08c379a0000000000000000000000000000000000000000000000000000000008152600401610cb790611666565b60405180910390fd5b600073ffffffffffffffffffffffffffffffffffffffff168173ffffffffffffffffffffffffffffffffffffffff161415610d30576040517f08c379a0000000000000000000000000000000000000000000000000000000008152600401610d27906115a6565b60405180910390fd5b80600160006101000a81548173ffffffffffffffffffffffffffffffffffffffff021916908373ffffffffffffffffffffffffffffffffffffffff16021790555050565b600060019054906101000a900473ffffffffffffffffffffffffffffffffffffffff1673ffffffffffffffffffffffffffffffffffffffff163373ffffffffffffffffffffffffffffffffffffffff1614610e04576040517f08c379a0000000000000000000000000000000000000000000000000000000008152600401610dfb90611666565b60405180910390fd5b60003411610e47576040517f08c379a0000000000000000000000000000000000000000000000000000000008152600401610e3e90611686565b60405180910390fd5b565b610e5161109d565b60008060006101000a81548160ff0219169083151502179055507f5db9ee0a495bf2e6ff9c91a7834c1ba4fdd244a5e8aa4e537bd38aeae4b073aa610e946110e6565b604051610ea19190611520565b60405180910390a1565b610eb3610961565b15610ef3576040517f08c379a0000000000000000000000000000000000000000000000000000000008152600401610eea90611626565b60405180910390fd5b565b610efd610eab565b6000610f07610977565b90506000816a52b7d2dcc80cd2e4000000600454610f25919061174a565b610f2f9190611719565b90506000600260009054906101000a900473ffffffffffffffffffffffffffffffffffffffff1673ffffffffffffffffffffffffffffffffffffffff1682604051610f799061150b565b60006040518083038185875af1925050503d8060008114610fb6576040519150601f19603f3d011682016040523d82523d6000602084013e610fbb565b606091505b5050905080610fff576040517f08c379a0000000000000000000000000000000000000000000000000000000008152600401610ff6906115e6565b60405180910390fd5b7f7eccf3ddb7453495d6c630623322db31f999dbe9c7906652694d38229c99b9374260405161102e91906116c6565b60405180910390a1505050565b611043610eab565b60016000806101000a81548160ff0219169083151502179055507f62e78cea01bee320cd4e420270b5ea74000d11b0c9f74754ebdbfc544b05a2586110866110e6565b6040516110939190611520565b60405180910390a1565b6110a5610961565b6110e4576040517f08c379a00000000000000000000000000000000000000000000000000000000081526004016110db90611586565b60405180910390fd5b565b600033905090565b6000813590506110fd81611aaa565b92915050565b60008135905061111281611ac1565b92915050565b60008083601f84011261112e5761112d6118e8565b5b8235905067ffffffffffffffff81111561114b5761114a6118e3565b5b602083019150836001820283011115611167576111666118ed565b5b9250929050565b60008151905061117d81611ad8565b92915050565b60008135905061119281611aef565b92915050565b6000815190506111a781611aef565b92915050565b6000815190506111bc81611b06565b92915050565b6000602082840312156111d8576111d76118f7565b5b60006111e6848285016110ee565b91505092915050565b60008060208385031215611206576112056118f7565b5b600083013567ffffffffffffffff811115611224576112236118f2565b5b61123085828601611118565b92509250509250929050565b600060208284031215611252576112516118f7565b5b600061126084828501611183565b91505092915050565b600080604083850312156112805761127f6118f7565b5b600061128e85828601611183565b925050602061129f85828601611103565b9150509250929050565b600080600080600060a086880312156112c5576112c46118f7565b5b60006112d3888289016111ad565b95505060206112e48882890161116e565b94505060406112f588828901611198565b935050606061130688828901611198565b9250506080611317888289016111ad565b9150509295509295909350565b61132d816117d8565b82525050565b61133c816117fc565b82525050565b600061134d826116e1565b61135781856116ec565b9350611367818560208601611852565b611370816118fc565b840191505092915050565b6000611388601483611708565b91506113938261190d565b602082019050919050565b60006113ab600f83611708565b91506113b682611936565b602082019050919050565b60006113ce600b83611708565b91506113d98261195f565b602082019050919050565b60006113f1601483611708565b91506113fc82611988565b602082019050919050565b6000611414601283611708565b915061141f826119b1565b602082019050919050565b6000611437601083611708565b9150611442826119da565b602082019050919050565b600061145a601883611708565b915061146582611a03565b602082019050919050565b600061147d600983611708565b915061148882611a2c565b602082019050919050565b60006114a0601583611708565b91506114ab82611a55565b602082019050919050565b60006114c36000836116fd565b91506114ce82611a7e565b600082019050919050565b60006114e6601383611708565b91506114f182611a81565b602082019050919050565b61150581611832565b82525050565b6000611516826114b6565b9150819050919050565b60006020820190506115356000830184611324565b92915050565b60006020820190506115506000830184611333565b92915050565b600060408201905061156b6000830185611333565b818103602083015261157d8184611342565b90509392505050565b6000602082019050818103600083015261159f8161137b565b9050919050565b600060208201905081810360008301526115bf8161139e565b9050919050565b600060208201905081810360008301526115df816113c1565b9050919050565b600060208201905081810360008301526115ff816113e4565b9050919050565b6000602082019050818103600083015261161f81611407565b9050919050565b6000602082019050818103600083015261163f8161142a565b9050919050565b6000602082019050818103600083015261165f8161144d565b9050919050565b6000602082019050818103600083015261167f81611470565b9050919050565b6000602082019050818103600083015261169f81611493565b9050919050565b600060208201905081810360008301526116bf816114d9565b9050919050565b60006020820190506116db60008301846114fc565b92915050565b600081519050919050565b600082825260208201905092915050565b600081905092915050565b600082825260208201905092915050565b600061172482611832565b915061172f83611832565b92508261173f5761173e6118b4565b5b828204905092915050565b600061175582611832565b915061176083611832565b9250817fffffffffffffffffffffffffffffffffffffffffffffffffffffffffffffffff048311821515161561179957611798611885565b5b828202905092915050565b60006117af82611832565b91506117ba83611832565b9250828210156117cd576117cc611885565b5b828203905092915050565b60006117e382611812565b9050919050565b60006117f582611812565b9050919050565b60008115159050919050565b6000819050919050565b600073ffffffffffffffffffffffffffffffffffffffff82169050919050565b6000819050919050565b600069ffffffffffffffffffff82169050919050565b60005b83811015611870578082015181840152602081019050611855565b8381111561187f576000848401525b50505050565b7f4e487b7100000000000000000000000000000000000000000000000000000000600052601160045260246000fd5b7f4e487b7100000000000000000000000000000000000000000000000000000000600052601260045260246000fd5b600080fd5b600080fd5b600080fd5b600080fd5b600080fd5b6000601f19601f8301169050919050565b7f5061757361626c653a206e6f7420706175736564000000000000000000000000600082015250565b7f496e76616c696420616464726573730000000000000000000000000000000000600082015250565b7f53616c617279203c3d2030000000000000000000000000000000000000000000600082015250565b7f4661696c656420746f2073656e64204574686572000000000000000000000000600082015250565b7f496e73756666696369656e742066756e64730000000000000000000000000000600082015250565b7f5061757361626c653a2070617573656400000000000000000000000000000000600082015250565b7f4661696c656420746f2077697468647261772045746865720000000000000000600082015250565b7f4e6f74206f776e65720000000000000000000000000000000000000000000000600082015250565b7f4d73672e76616c75652063616e6e6f7420626520300000000000000000000000600082015250565b50565b7f4e6f74204b656570657220526567697374727900000000000000000000000000600082015250565b611ab3816117d8565b8114611abe57600080fd5b50565b611aca816117ea565b8114611ad557600080fd5b50565b611ae181611808565b8114611aec57600080fd5b50565b611af881611832565b8114611b0357600080fd5b50565b611b0f8161183c565b8114611b1a57600080fd5b5056fea26469706673582212209b343ce62d1288481d6646d149ff7a883d31a3933a7bbefaabcef6e428297ea764736f6c63430008070033",
  "linkReferences": {},
  "deployedLinkReferences": {}
}